:020000040800F2
:1000000000000824412C00088127000883270008ED
:1000100085270008872700088927000800000000BE
:100020000000000000000000000000008B27000816
:100030008D270008000000008F2700089127000886
:10004000952C0008952C0008952C0008952C00088C
:10005000952C0008952C0008952C0008952C00087C
:10006000952C000899270008952C0008952C00086D
:10007000952C0008952C0008952C0008952C00085C
:10008000952C0008952C0008952C0008952C00084C
:10009000952C0008952C0008952C0008952C00083C
:1000A000952C0008952C0008952C0008952C00082C
:1000B000952C0008952C0008A5270008952C000811
:1000C000952C0008952C0008952C0008952C00080C
:1000D000952C0008952C0008952C0008952C0008FC
:1000E000952C0008952C000800000000952C0008B5
:1000F000952C0008952C0008952C0008952C0008DC
:10010000952C0008952C0008952C0008952C0008CB
:10011000952C0008952C0008952C0008952C0008BB
:10012000952C0008952C0008952C0008952C0008AB
:10013000952C0008952C0008952C0008952C00089B
:1001400000000000000000000000000000000000AF
:10015000952C0008952C0008952C0008952C00087B
:10016000952C0008952C0008952C0008952C00086B
:10017000952C0008952C0008952C00080000000024
:10018000952C0008952C0008952C0008952C00084B
:10019000952C0008952C0008952C0008952C00083B
:1001A000952C0008952C0008952C0008952C00082B
:1001B000952C0008952C0008952C0008952C00081B
:1001C000952C0008952C0008952C0008952C00080B
:1001D000952C0008952C0008952C0008952C0008FB
:1001E000952C0008952C0008952C0008952C0008EB
:1001F000952C0008952C0008952C0008952C0008DB
:10020000952C0008952C0008952C0008952C0008CA
:10021000952C0008952C0008952C0008952C0008BA
:10022000952C0008952C0008952C00080000000073
:10023000952C0008952C000800000000952C000863
:10024000952C0008952C0008952C0008952C00088A
:10025000952C0008952C0008952C0008952C00087A
:10026000952C0008952C0008952C0008952C00086A
:10027000952C0008952C0008952C00080000000023
:10028000952C0008952C0008952C00080000000013
:0802900000000000952C00089D
:1002C00010B5054C237833B9044B13B10448AFF390
:1002D00000800123237010BDC0090024000000002D
:1002E00004D2000808B5034B1BB103490348AFF320
:1002F000008008BD00000000C409002404D20008EA
:1003000081F0004102E000BF83F0004330B54FEAC6
:1003100041044FEA430594EA050F08BF90EA020F33
:100320001FBF54EA000C55EA020C7FEA645C7FEAC6
:10033000655C00F0E2804FEA5454D4EB5555B8BFE9
:100340006D420CDD2C4480EA020281EA030382EA5A
:10035000000083EA010180EA020281EA0303362DEC
:1003600088BF30BD11F0004F4FEA01314FF4801CBF
:100370004CEA113102D0404261EB410113F0004FD1
:100380004FEA03334CEA133302D0524263EB430388
:1003900094EA050F00F0A780A4F10104D5F1200E26
:1003A0000DDB02FA0EFC22FA05F2801841F1000181
:1003B00003FA0EF2801843FA05F359410EE0A5F155
:1003C00020050EF1200E012A03FA0EFC28BF4CF086
:1003D000020C43FA05F3C01851EBE37101F000453C
:1003E00007D54FF0000EDCF1000C7EEB00006EEB49
:1003F0000101B1F5801F1BD3B1F5001F0CD34908D3
:100400005FEA30004FEA3C0C04F101044FEA445229
:1004100012F5800F80F09A80BCF1004F08BF5FEAB0
:10042000500C50F1000041EB045141EA050130BD90
:100430005FEA4C0C404141EB0101013C28BFB1F5A2
:10044000801FE9D291F0000F04BF01460020B1FAED
:1004500081F308BF2033A3F10B03B3F120020CDAC0
:100460000C3208DD02F1140CC2F10C0201FA0CF09E
:1004700021FA02F10CE002F11402D8BFC2F1200C03
:1004800001FA02F120FA0CFCDCBF41EA0C019040B9
:10049000E41AA2BF01EB0451294330BD6FEA040402
:1004A0001F3C1CDA0C340EDC04F11404C4F12002ED
:1004B00020FA04F001FA02F340EA030021FA04F3FF
:1004C00045EA030130BDC4F10C04C4F1200220FA56
:1004D00002F001FA04F340EA0300294630BD21FA94
:1004E00004F0294630BD94F0000F83F4801306BF5A
:1004F00081F480110134013D4EE77FEA645C18BF4E
:100500007FEA655C29D094EA050F08BF90EA020FE4
:1005100005D054EA000C04BF1946104630BD91EADC
:10052000030F1EBF0021002030BD5FEA545C05D1DF
:100530004000494128BF41F0004130BD14F580041E
:100540003CBF01F5801130BD01F0004545F0FE4192
:1005500041F470014FF0000030BD7FEA645C1ABFC7
:10056000194610467FEA655C1CBF0B46024650EAFE
:10057000013406BF52EA033591EA030F41F400212A
:1005800030BD00BF90F0000F04BF0021704730B5B0
:100590004FF4806404F132044FF000054FF0000185
:1005A00050E700BF90F0000F04BF0021704730B546
:1005B0004FF4806404F1320410F0004548BF40421B
:1005C0004FF000013EE700BF42004FEAE2014FEA70
:1005D00031014FEA02701FBF12F07F4393F07F4F4B
:1005E00081F06051704732F07F4208BF704793F04E
:1005F0007F4F04BF41F40021704730B54FF4607461
:1006000001F0004521F000411CE700BF50EA010263
:1006100008BF704730B54FF000050AE050EA01020C
:1006200008BF704730B511F0004502D5404261EB7C
:1006300041014FF4806404F132045FEA915C3FF4BD
:10064000D8AE4FF003025FEADC0C18BF03325FEA5A
:10065000DC0C18BF033202EBDC02C2F1200300FA0B
:1006600003FC20FA02F001FA03FE40EA0E0021FA30
:1006700002F11444BDE600BF4FEA4102B2F1E0438B
:1006800024BFB3F5001CDCF1FE5C0DD901F0004C79
:100690004FEAC0024CEA5070B2F1004F40EB8300C9
:1006A00008BF20F00100704711F0804F21D113F1F5
:1006B0003872BCBF01F00040704741F480114FEA2E
:1006C0005252C2F11802C2F1200C10FA0CF320FAB7
:1006D00002F018BF40F001004FEAC1234FEAD323D4
:1006E00003FA0CFC40EA0C0023FA02F34FEA43033E
:1006F000CCE77FEA625307D150EA01331EBF4FF0C7
:10070000FE4040F44000704701F0004040F0FE40E1
:1007100040F40000704700BF80F0004002E000BFDE
:1007200081F0004142001FBF5FEA410392EA030FDC
:100730007FEA226C7FEA236C6AD04FEA1262D2EB26
:100740001363C1BFD218414048404140B8BF5B422B
:10075000192B88BF704710F0004F40F4000020F0C4
:100760007F4018BF404211F0004F41F4000121F0DA
:100770007F4118BF494292EA030F3FD0A2F1010224
:1007800041FA03FC10EB0C00C3F1200301FA03F162
:1007900000F0004302D5494260EB4000B0F5000F85
:1007A00013D3B0F1807F06D340084FEA310102F144
:1007B0000102FE2A51D2B1F1004F40EBC25008BFF6
:1007C00020F0010040EA03007047490040EB0000C0
:1007D000013A28BFB0F5000FEDD2B0FA80FCACF1C1
:1007E000080CB2EB0C0200FA0CF0AABF00EBC250EE
:1007F00052421843BCBFD0401843704792F0000FDC
:1008000081F4000106BF80F400000132013BB5E72E
:100810004FEA41037FEA226C18BF7FEA236C21D0A4
:1008200092EA030F04D092F0000F08BF0846704709
:1008300090EA010F1CBF0020704712F07F4F04D1D7
:10084000400028BF40F00040704712F100723CBFEA
:1008500000F50000704700F0004343F0FE4040F414
:10086000000070477FEA226216BF08467FEA2363D2
:100870000146420206BF5FEA412390EA010F40F4BD
:10088000800070474FF0000304E000BF10F0004309
:1008900048BF40425FEA000C08BF704743F09643F0
:1008A00001464FF000001CE050EA010208BF70470B
:1008B0004FF000030AE000BF50EA010208BF704792
:1008C00011F0004302D5404261EB41015FEA010CA7
:1008D00002BF84460146002043F0B64308BFA3F19F
:1008E0008053A3F50003BCFA8CF2083AA3EBC25381
:1008F00010DB01FA02FC634400FA02FCC2F12002A0
:10090000BCF1004F20FA02F243EB020008BF20F0D6
:100910000100704702F1200201FA02FCC2F120023C
:1009200050EA4C0021FA02F243EB020008BF20EA31
:10093000DC7070474FF0FF0C1CEAD0521EBF1CEA5F
:10094000D15392EA0C0F93EA0C0F6FD01A4480EA4D
:10095000010C400218BF5FEA41211ED04FF0006336
:1009600043EA501043EA5111A0FB01310CF0004062
:10097000B1F5000F3EBF490041EAD3715B0040EA88
:10098000010062F17F02FD2A1DD8B3F1004F40EB58
:10099000C25008BF20F00100704790F0000F0CF02B
:1009A000004C08BF49024CEA502040EA51207F3AEF
:1009B000C2BFD2F1FF0340EAC250704740F40000CA
:1009C0004FF00003013A5DDC12F1190FDCBF00F0BB
:1009D00000407047C2F10002410021FA02F1C2F169
:1009E000200200FA02FC5FEA310040F1000053EA05
:1009F0004C0308BF20EADC70704792F0000F00F053
:100A0000004C02BF400010F4000F013AF9D040EA58
:100A10000C0093F0000F01F0004C02BF490011F4EC
:100A2000000F013BF9D041EA0C018FE70CEAD153EA
:100A300092EA0C0F18BF93EA0C0F0AD030F0004C6A
:100A400018BF31F0004CD8D180EA010000F000401E
:100A5000704790F0000F17BF90F0004F084691F0DC
:100A6000000F91F0004F14D092EA0C0F01D1420216
:100A70000FD193EA0C0F03D14B0218BF084608D1DF
:100A800080EA010000F0004040F0FE4040F4000029
:100A9000704740F0FE4040F4400070474FF0FF0CBC
:100AA0001CEAD0521EBF1CEAD15392EA0C0F93EA03
:100AB0000C0F69D0A2EB030280EA010C49024FEA55
:100AC000402037D04FF0805343EA111143EA10130E
:100AD0000CF000408B4238BF5B0042F17D024FF4C6
:100AE000000C8B4224BF5B1A40EA0C00B3EB510FA1
:100AF00024BFA3EB510340EA5C00B3EB910F24BF8A
:100B0000A3EB910340EA9C00B3EBD10F24BFA3EB0E
:100B1000D10340EADC001B0118BF5FEA1C1CE0D1D6
:100B2000FD2A3FF650AF8B4240EBC25008BF20F089
:100B3000010070470CF0004C4CEA50207F32C2BFDD
:100B4000D2F1FF0340EAC250704740F400004FF07A
:100B50000003013A37E792F0000F00F0004C02BFAB
:100B6000400010F4000F013AF9D040EA0C0093F075
:100B7000000F01F0004C02BF490011F4000F013BCF
:100B8000F9D041EA0C0195E70CEAD15392EA0C0F37
:100B900008D142027FF47DAF93EA0C0F7FF470AF6F
:100BA000084676E793EA0C0F04D14B023FF44CAFB2
:100BB00008466EE730F0004C18BF31F0004CCAD147
:100BC00030F000427FF45CAF31F000437FF43CAF83
:100BD0005FE700BF42000ED2B2F1FE4F0BD34FF0E1
:100BE0009E03B3EB126209D44FEA002343F00043A3
:100BF00023FA02F070474FF00000704712F1610FC6
:100C000001D1420202D14FF0FF3070474FF0000097
:100C1000704700BF53B94AB9002908BF00281CBF5C
:100C20004FF0FF314FF0FF3000F074B9ADF1080C18
:100C30006DE904CE00F006F8DDF804E0DDE90223FA
:100C400004B070472DE9F047089E0D4604468846DB
:100C5000002B4DD18A42944668D9B2FA82F252B141
:100C600001FA02F3C2F1200120FA01F10CFA02FCB0
:100C700041EA030894404FEA1C45210CB8FBF5FEFD
:100C80001FFA8CF705FB1E8341EA03430EFB07F1B5
:100C900099420BD91CEB03030EF1FF3080F01E814B
:100CA000994240F21B81AEF1020E63445B1AA4B27A
:100CB000B3FBF5F005FB103344EA034400FB07F7F0
:100CC000A7420AD91CEB040400F1FF3380F008812D
:100CD000A74240F2058164440238E41B40EA0E401A
:100CE00000211EB1D4400023C6E90043BDE8F087CF
:100CF0008B4208D9002E00F0EE800021C6E90005E5
:100D00000846BDE8F087B3FA83F100294AD1AB4227
:100D100002D3824200F2F980841A65EB03030120BA
:100D20009846002EE2D0C6E90048DFE702B9FFDEB0
:100D3000B2FA82F2002A40F09180A1EB0C054FEA52
:100D40001C471FFA8CFE0121B5FBF7F307FB13507C
:100D5000250C45EA00450EFB03F0A84208D91CEB20
:100D6000050503F1FF3802D2A84200F2CB804346CA
:100D70002D1AA4B2B5FBF7F007FB105544EA054461
:100D80000EFB00FEA64508D91CEB040400F1FF355C
:100D900002D2A64500F2BB802846A4EB0E0440EA2E
:100DA00003409EE7C1F120078B4022FA07FC4CEA82
:100DB000030C20FA07F405FA01F31C43FD404FEA47
:100DC0001C4900FA01F3B5FBF9F8200C1FFA8CFE60
:100DD00009FB185540EA054508FB0EF0A84202FA47
:100DE00001F20BD91CEB050508F1FF3A80F0888071
:100DF000A84240F28580A8F1020865442D1AA4B2E9
:100E0000B5FBF9F009FB105544EA054500FB0EFE61
:100E1000AE4508D91CEB050500F1FF346CD2AE4598
:100E20006AD90238654440EA0840A0FB0294A5EB69
:100E30000E05A542C846A64656D353D05EB1B3EBC5
:100E4000080265EB0E0505FA07F722FA01F3CD401B
:100E50001F43C6E900750021BDE8F087C2F12003F9
:100E600020FA03F10CFA02FC25FA03F395400D4336
:100E70004FEA1C471FFA8CFEB3FBF7F107FB11305A
:100E80002B0C43EA004301FB0EF0984204FA02F4F3
:100E900008D91CEB030301F1FF382FD298422DD95A
:100EA000023963441B1AADB2B3FBF7F007FB1033F2
:100EB00045EA034500FB0EF3AB4208D91CEB0505E0
:100EC00000F1FF3816D2AB4214D902386544ED1A4E
:100ED00040EA014138E73146304607E78646E5E615
:100EE0001846FAE64B45A9D2B9EB020864EB0C0EA2
:100EF0000138A3E74046EAE7204694E74146D1E7B8
:100F0000D0467BE7023B654432E7084609E7644484
:100F1000023842E7704700BF0000000000000000F8
:100F200001F0FF01102A2BDB10F0070F08D010F89A
:100F3000013B013A8B422DD010F0070F42B3F6D19E
:100F4000F0B441EA012141EA014122F007047FF0B7
:100F500000070023F0E80256083C85EA010586EA0E
:100F6000010685FA47F5A3FA87F586FA47F6A5FA4A
:100F700087F68EB9EED1F0BC01F0FF0102F0070256
:100F800032B110F8013B013A83EA010313B1F8D101
:100F90000020704701387047002D06BF35460338E2
:100FA000073815F0010F07D1013015F4807F02BF1B
:100FB000013015F4C03F0130F0BC0138704700BF6C
:100FC000844641EA000313F003036DD1403A41D354
:100FD00051F8043B40F8043B51F8043B40F8043B13
:100FE00051F8043B40F8043B51F8043B40F8043B03
:100FF00051F8043B40F8043B51F8043B40F8043BF3
:1010000051F8043B40F8043B51F8043B40F8043BE2
:1010100051F8043B40F8043B51F8043B40F8043BD2
:1010200051F8043B40F8043B51F8043B40F8043BC2
:1010300051F8043B40F8043B51F8043B40F8043BB2
:1010400051F8043B40F8043B51F8043B40F8043BA2
:10105000403ABDD2303211D351F8043B40F8043B42
:1010600051F8043B40F8043B51F8043B40F8043B82
:1010700051F8043B40F8043B103AEDD20C3205D352
:1010800051F8043B40F8043B043AF9D2043208D04A
:10109000D2071CBF11F8013B00F8013B01D30B88BC
:1010A00003806046704700BF082A13D38B078DD09A
:1010B00010F003038AD0C3F10403D21ADB071CBF6C
:1010C00011F8013B00F8013B80D331F8023B20F8D6
:1010D000023B7BE7043AD9D3013A11F8013B00F80F
:1010E000013BF9D20B7803704B7843708B78837097
:1010F0006046704700000000000000000000000093
:1011000090F800F06DE9024520F007016FF0000C47
:1011100010F0070491F820F040F049804FF00004EF
:101120006FF00700D1E9002391F840F000F10800CA
:1011300082FA4CF2A4FA8CF283FA4CF3A2FA8CF302
:101140004BBBD1E9022382FA4CF200F10800A4FA69
:101150008CF283FA4CF3A2FA8CF3E3B9D1E90423BD
:1011600082FA4CF200F10800A4FA8CF283FA4CF3F4
:10117000A2FA8CF37BB9D1E9062301F1200182FAAE
:101180004CF200F10800A4FA8CF283FA4CF3A2FAB4
:101190008CF3002BC6D0002A04BF04301A4612BAC2
:1011A000B2FA82F2FDE8024500EBD2007047D1E9C5
:1011B000002304F00305C4F100004FEAC50514F054
:1011C000040F91F840F00CFA05F562EA05021CBF25
:1011D00063EA050362464FF00004A9E770B54FF0DB
:1011E000FF0C4CF4E06C1CEA11541DBF1CEA1355B3
:1011F00094EA0C0F95EA0C0F00F0DEF82C4481EA1B
:10120000030621EA4C5123EA4C5350EA013518BF3A
:1012100052EA033541F4801143F4801338D0A0FB27
:1012200002CE4FF00005E1FB02E506F00042E0FBD4
:1012300003E54FF00006E1FB03569CF0000F18BFDA
:101240004EF0010EA4F1FF04B6F5007F64F5407482
:1012500004D25FEA4E0E6D4146EB060642EAC62115
:1012600041EA55514FEAC52040EA5E504FEACE2E82
:10127000B4F1FD0C88BFBCF5E06F1ED8BEF1004F85
:1012800008BF5FEA500E50F1000041EB045170BD01
:1012900006F0004646EA010140EA020081EA030145
:1012A000B4EB5C04C2BFD4EB0C0541EA045170BD41
:1012B00041F480114FF0000E013C00F3AB8014F1BB
:1012C000360FDEBF002001F0004170BDC4F1000404
:1012D000203C35DA0C341BDC04F11404C4F1200585
:1012E00000FA05F320FA04F001FA05F240EA0200E0
:1012F00001F0004221F0004110EBD37021FA04F616
:1013000042EB06015EEA430E08BF20EAD37070BDCF
:10131000C4F10C04C4F1200500FA04F320FA05F02E
:1013200001FA04F240EA020001F0004110EBD37030
:1013300041F100015EEA430E08BF20EAD37070BDA0
:10134000C4F1200500FA05F24EEA020E20FA04F379
:1013500001FA05F243EA020321FA04F001F0004128
:1013600021FA04F220EA020000EBD3705EEA430E99
:1013700008BF20EAD37070BD94F0000F0FD101F0C8
:101380000046400041EB010111F4801F08BF013C01
:10139000F7D041EA060195F0000F18BF704703F03F
:1013A0000046520043EB030313F4801F08BF013DC6
:1013B000F7D043EA0603704794EA0C0F0CEA135582
:1013C00018BF95EA0C0F0CD050EA410618BF52EA3C
:1013D0004306D1D181EA030101F000414FF0000042
:1013E00070BD50EA410606BF1046194652EA430650
:1013F00019D094EA0C0F02D150EA013613D195EAC4
:101400000C0F05D152EA03361CBF104619460AD10B
:1014100081EA030101F0004141F0FE4141F4700115
:101420004FF0000070BD41F0FE4141F4780170BD05
:1014300070B54FF0FF0C4CF4E06C1CEA11541DBF6A
:101440001CEA135594EA0C0F95EA0C0F00F0A7F86C
:10145000A4EB050481EA030E52EA03354FEA013199
:1014600000F088804FEA03334FF0805545EA1313AC
:1014700043EA12634FEA022245EA111545EA106574
:101480004FEA00260EF000419D4208BF964244F10B
:10149000FD0404F5407402D25B084FEA3202B61A2A
:1014A00065EB03055B084FEA32024FF480104FF4FE
:1014B000002CB6EB020E75EB030E22BFB61A754672
:1014C00040EA0C005B084FEA3202B6EB020E75EB05
:1014D000030E22BFB61A754640EA5C005B084FEA6D
:1014E0003202B6EB020E75EB030E22BFB61A75463A
:1014F00040EA9C005B084FEA3202B6EB020E75EB45
:10150000030E22BFB61A754640EADC0055EA060E05
:1015100018D04FEA051545EA16754FEA06164FEA48
:10152000C30343EA52734FEAC2025FEA1C1CC0D1F4
:1015300011F4801F0BD141EA00014FF000004FF081
:10154000004CB6E711F4801F04BF01430020B4F142
:10155000FD0C88BFBCF5E06F3FF6AFAEB5EB030CFA
:1015600004BFB6EB020C5FEA500C50F1000041EBF7
:10157000045170BD0EF0004E4EEA113114EB5C04C4
:10158000C2BFD4EB0C0541EA045170BD41F4801197
:101590004FF0000E013C90E645EA060E8DE60CEA9F
:1015A000135594EA0C0F08BF95EA0C0F3FF43BAFBC
:1015B00094EA0C0F0AD150EA01347FF434AF95EA73
:1015C0000C0F7FF425AF104619462CE795EA0C0F57
:1015D00006D152EA03353FF4FDAE1046194622E724
:1015E00050EA410618BF52EA43067FF4C5AE50EAFE
:1015F00041047FF40DAF52EA43057FF4EBAE12E7EE
:101600004FF0FF3C06E000BF4FF0010C02E000BFCE
:101610004FF0010C4DF804CD4FEA410C7FEA6C5CB1
:101620004FEA430C18BF7FEA6C5C1BD001B050EA54
:10163000410C0CBF52EA430C91EA030F02BF90EA3F
:10164000020F0020704710F1000F91EA030F58BFFE
:10165000994208BF90422CBFD8176FEAE37040F060
:10166000010070474FEA410C7FEA6C5C02D150EAFE
:10167000013C07D14FEA430C7FEA6C5CD6D152EAB9
:10168000033CD3D05DF8040B704700BF844610467E
:1016900062468C461946634600E000BF01B5FFF77D
:1016A000B7FF002848BF10F1000F01BD4DF808ED4D
:1016B000FFF7F4FF0CBF012000205DF808FB00BF1E
:1016C0004DF808EDFFF7EAFF34BF012000205DF878
:1016D00008FB00BF4DF808EDFFF7E0FF94BF0120C5
:1016E00000205DF808FB00BF4DF808EDFFF7CEFFC6
:1016F00094BF012000205DF808FB00BF4DF808ED05
:10170000FFF7C4FF34BF012000205DF808FB00BFD5
:101710004FEA410C7FEA6C5C02D150EA013C0AD1ED
:101720004FEA430C7FEA6C5C02D152EA033C02D1DF
:101730004FF0000070474FF0010070474FEA410240
:1017400012F5001215D211D56FF47873B3EB625213
:1017500012D94FEAC12343F0004343EA505311F03A
:10176000004F23FA02F018BF404270474FF00000CC
:10177000704750EA013005D111F0004008BF6FF00A
:10178000004070474FF00000704700BFF0B583B0D5
:101790000646BDF82000BDF82470904288BF8B42F9
:1017A00004D95D1A841A04FB05F50DB903B0F0BD28
:1017B000013B013880B200909BB2304600F0A7FA9E
:1017C000304600F01BFA002404E03946304600F0B1
:1017D000F9F90134AC42F8D30121304600F0E3F9C5
:1017E000E4E738B505460C46362100F06FFA032CC5
:1017F00017D8DFE804F002070C110021284600F09A
:1018000022FA38BDA021284600F01DFAF9E7C021D0
:10181000284600F018FAF4E76021284600F013FA91
:10182000EFE7C021284600F00EFAEAE710B50446BB
:1018300000F0E8F90021204600F058F9642001F09A
:1018400093FA0121204600F051F9642001F08CFA4E
:101850000121204600F05FF9642001F085FA0121A2
:10186000204600F033FA782001F07EFA112120465C
:1018700000F02CFA782001F077FA94F82E10204628
:10188000FFF7AFFF3A21204600F020FA052120465D
:1018900000F0D9F9B221204600F018FA0C212046B8
:1018A00000F0D1F90C21204600F0CDF900212046AE
:1018B00000F0C9F93321204600F0C5F93321204654
:1018C00000F0C1F9B721204600F000FA722120464D
:1018D00000F0B9F9BB21204600F0F8F93D2120467F
:1018E00000F0B1F9C021204600F0F0F92C2120468B
:1018F00000F0A9F9C221204600F0E8F901212046B4
:1019000000F0A1F9C321204600F0E0F9192120469A
:1019100000F099F9C421204600F0D8F92021204692
:1019200000F091F9C621204600F0D0F905212046AB
:1019300000F089F9D021204600F0C8F9A421204602
:1019400000F081F9A121204600F07DF9D621204642
:1019500000F0BCF9A121204600F075F9E0212046F5
:1019600000F0B4F9D021204600F06DF904212046A2
:1019700000F069F90D21204600F065F9112120469B
:1019800000F061F91321204600F05DF92B2120467B
:1019900000F059F93F21204600F055F95421204626
:1019A00000F051F94C21204600F04DF91821204655
:1019B00000F049F90D21204600F045F90B212046A1
:1019C00000F041F91F21204600F03DF92321204677
:1019D00000F039F9E121204600F078F9D0212046C5
:1019E00000F031F90421204600F02DF90C212046A9
:1019F00000F029F91121204600F025F91321204695
:101A000000F021F92C21204600F01DF93F2120464D
:101A100000F019F94421204600F015F95121204623
:101A200000F011F92F21204600F00DF91F2120466A
:101A300000F009F91F21204600F005F92021204679
:101A400000F001F92321204600F0FDF82121204675
:101A500000F03CF92921204600F038F9142001F06B
:101A600083F910BD0023032B0DDC074A52F8232015
:101A70002AB111680268914201D00133F3E7024AAA
:101A800042F8230070477047DC090024024630B159
:101A900090F82C301BB192F82D30002BFBD1704701
:101AA0000160426003814FF4805303850023438526
:101AB0004362032380F82E30022380F82F30012365
:101AC00080F830307047C16002824361BDF8003059
:101AD0000383019BC361BDF808300384704780F81D
:101AE0002E1080F82F2080F83030704708B50A4655
:101AF000018B406901F042FD08BD08B50A46018A24
:101B0000C06801F03BFD08BD08B50A460189406880
:101B100001F034FD08BD08B50A46018CC06901F02A
:101B20002DFD08BD08B503F051FD08BD08B504F052
:101B300057F808BDB0B3F8B50F4616461D46044623
:101B4000036873B3B1FA81F0400952B348BB204631
:101B5000FFF79CFF01212046FFF7CFFF0021204621
:101B6000FFF7D2FF94F82C3083B1012384F82D3095
:101B7000324639462068FFF7D9FF95B12046FFF776
:101B800085FF01212046FFF7BFFF0AE04FF0FF333A
:101B9000324639462068FFF7C5FF01212046FFF78E
:101BA000B3FFF8BD704760B110B50B460446416AFB
:101BB00009B1428D02B910BDFFF7BCFF0023638558
:101BC000F9E77047C8B138B50D460446436A7BB1A2
:101BD000428D038D013B9A420BDA626A638D591C78
:101BE0006185290AD154626A638D591C6185D55477
:101BF00038BD0021FFF7D7FFEFE7704708B100229B
:101C000042857047F0B138B50446056875B1436A3E
:101C10006BB100236385AB6F83B1012384F82C3053
:101C2000002384F82D302046FFF71CFF38BD008DBF
:101C300005F0A6FB60620028EBD1F7E7002384F8EB
:101C40002C30EDE7704710B582B08DF80710C0B1A9
:101C500004460368ABB1FFF719FF01212046FFF7E7
:101C60004CFF00212046FFF74FFF4FF0FF330122CA
:101C70000DF107012068FFF755FF01212046FFF70E
:101C800043FF02B010BD00B310B582B00446036834
:101C9000CBB10B0A8DF804308DF80510FFF7F6FE76
:101CA00001212046FFF729FF00212046FFF72CFFE6
:101CB0004FF0FF33022201A92068FFF733FF012113
:101CC0002046FFF721FF02B010BD704710B582B06B
:101CD0008DF80710C8B104460368B3B10121FFF7BE
:101CE00062FF00212046FFF708FF00212046FFF792
:101CF0000BFF4FF0FF3301220DF107012068FFF7C2
:101D000011FF01212046FFF7FFFE02B010BD2DE9B3
:101D1000F041BDF81880D0B30F4616461D46044664
:101D20000121FFF740FF2A212046FFF7CFFF94F85B
:101D30002E00022818BF00282BD194F82F10394408
:101D400089B22046FFF79FFF94F82F10294489B2EB
:101D50002046FFF798FF2B212046FFF7B7FF94F8A6
:101D60002E30022B18BF002B22D194F830103144B2
:101D700089B22046FFF787FF94F83010414489B2BA
:101D80002046FFF780FF2C212046FFF79FFFBDE88C
:101D9000F08194F83010394489B22046FFF773FF80
:101DA00094F83010294489B22046FFF76CFFD2E73F
:101DB00094F82F10314489B22046FFF764FF94F85D
:101DC0002F10414489B22046FFF75DFFDBE700009A
:101DD0000023032B19DC10B50AE001212046FFF790
:101DE00093FE002384F82D300EE00133032B0BDC2F
:101DF000064A52F82340002CF7D022688242F4D1E0
:101E000094F82C30002BE8D110BD7047DC09002479
:101E10002DE9F04F89B0814606939DF848009DF862
:101E20004C30BDF850A0BDF8544003949DF8588044
:101E3000DC1DE5100595E408049484B20794084479
:101E400084B29FB2981880B2631E013880B20090AD
:101E50009BB24846FFF75BFF4846FFF7CFFE4FF0C7
:101E6000000B29E051464846FFF7ACFE0134A4B20E
:101E7000072C11D804EBC5039BB29F420CD946FA3C
:101E800004F313F0010FEDD1B8F1000FEED1039977
:101E90004846FFF797FEE9E70135EDB2049B9D4206
:101EA00006D2059B03FB0B53069AD65C0024DFE7A2
:101EB0000BF1010B1FFA8BFB079B5B4501D900253A
:101EC000ECE701214846FFF76EFE09B0BDE8F08F50
:101ED00070B586B09DF83040102C28D00C2C22D044
:101EE0004FF0060E144C65782678A3F1200C5FFAAB
:101EF0008CFCBCF15E0F00D92023A3F1200C1FFA4B
:101F00008CFC63689DF834400494BDF82C40039425
:101F1000BDF828400294019600950EFB0C33FFF7A4
:101F200077FF06B070BD4FF00C0E044CDBE74FF0AE
:101F3000100E034CD7E700BF30D2000820D20008B3
:101F400028D200082DE9F04F85B007468B4616468B
:101F50001C46BDF838A0BDF83C909DF840509DF857
:101F6000448005E0104B597859441FFA81FB013435
:101F70002378ABB1CDF80C800295CDF80490CDF864
:101F800000A0324659463846FFF7A2FF102DE9D08F
:101F90000C2D02D0054B5978E6E7054B5978E3E75D
:101FA00005B0BDE8F08F00BF28D2000830D200088D
:101FB00020D200082DE9F0438BB00024059406944C
:101FC000079408940994524BD3F8E02042F0800221
:101FD000C3F8E020D3F8E02002F080020092009ADB
:101FE000D3F8E02042F00402C3F8E020D3F8E02068
:101FF00002F004020192019AD3F8E02042F00102BB
:10200000C3F8E020D3F8E02002F001020292029A25
:10201000D3F8E02042F00202C3F8E020D3F8E02039
:1020200002F002020392039AD3F8E02042F0100279
:10203000C3F8E020D3F8E03003F010030493049BCE
:10204000344F22468021384601F098FADFF8C880E4
:1020500022460621404601F091FA304E22464FF2C8
:102060008031304601F08AFA082305934FF4881333
:102070000693079405A92A4801F06CF9802305937B
:102080000125069507954FF00309CDF8209005A985
:10209000384601F05FF90227059706950795CDF8B8
:1020A000209005A9404601F055F9042305930695B3
:1020B0000797089405A9404601F04CF94FF4C07306
:1020C000059306950797089405A9304601F042F953
:1020D0004FF40073059306950795089405A93046BB
:1020E00001F038F94FF4704305930695079408946E
:1020F00005A9304601F02EF922462146092000F0BC
:102100005FFE092000F092FE0BB0BDE8F08300BF37
:1021100000440258000002580004025800100258FF
:102120000008025810B584B0002400940194029471
:10213000039400F09DFE01238DF800308DF80140DE
:1021400001941F228DF8082087228DF809208DF830
:102150000A408DF80B408DF80C308DF80D308DF85D
:102160000E408DF80F40684600F0A0FE042000F0FD
:102170008DFE04B010BD000030B585B0134D144C79
:102180004FF400532A4613492046FFF789FC4FF4C9
:102190008053029301954FF4004300932B464FF474
:1021A000804229462046FFF78EFC1E230022032191
:1021B0002046FFF794FC2046FFF724FD2046FFF75A
:1021C00035FB4FF48063238505B030BD0010025805
:1021D000F4490024D04A0024082800D0704708B5EC
:1021E0000D4B1B88B3F5806F07D30C4B01221A707F
:1021F0000B4A13680133136008BD0821094800EB3E
:10220000031000F061F9044A138801331380034B73
:1022100000221A70F0E700BF284A0024EC4900248D
:10222000F0490024EC09002472B6FEE700B59DB029
:102230004C22002109A805F05BFB2022002101A807
:1022400005F056FB022001F0AFF900230093254B67
:10225000DA6A22F00102DA62DB6A03F0010300931A
:10226000214A936923F4404343F480439361936983
:1022700003F440430093009B1B4B9B6913F4005FE6
:10228000FAD00223099301220C9240220D9212935C
:1022900000221392042114910A2115911693179389
:1022A00018930C2119911A931B9209A801F0A6F911
:1022B000A0B93F23019303230293002303930493C4
:1022C000059306934FF4806207920893012101A8B9
:1022D00001F0FAFD20B91DB05DF804FBFFF7A4FF83
:1022E000FFF7A2FF00040058004802582DE9F04310
:1022F00085B0FFF717FF00F0F7FCFFF797FFFFF738
:1023000059FE00F01DFC00F02BF900F02FFB00F04F
:10231000D5FB00F055F9FFF72FFF00240194F023BF
:1023200000934FF4A073224621463C48FFF72EFA53
:1023300000F0A6F8204600F001F900F0ADF848E002
:10234000374F2E01B85B00F0DFF801462046FEF75C
:10235000E9F90446BB5B98440135B5F5806FEFDBC6
:102360004FF06A512046FEF7E5FA4FEA9828FEF74B
:102370002BF902460B462B4E2B49304605F028FB25
:10238000264D002403944FF01009CDF808900194D5
:102390004FF6FF77009733461E220A212846FFF7A3
:1023A000D1FD224E434642462149304605F010FBFE
:1023B0000394CDF8089001940097334632220A2105
:1023C0002846FFF7BFFD1B4B1C801B4B1C6000F019
:1023D00063F81A4B1B78002BFBD000F065F8164B06
:1023E00001221A60154B1A78154D164B1B681649B9
:1023F000284605F0EDFA002403941023029301947B
:102400004FF6FF7300932B460A2211460348FFF74D
:1024100099FD2546A04600249FE700BFF44900240B
:10242000EC090024644A0024DCDE0008984A0024F9
:10243000ECDE0008284A00242C4A0024EC49002441
:10244000304A0024F0490024C4DE000810B50B4CCB
:1024500000220221204601F091F8012202212046AB
:1024600001F08CF83C2301E000BF013B002BFBDCBA
:1024700000220221014801F081F810BD0004025839
:1024800008B501228021034801F078F8FFF7DEFF4C
:1024900008BD00BF0000025808B50021014804F043
:1024A000D7F808BDE44B002408B50021044804F027
:1024B00083F901228021034801F060F808BD00BFC4
:1024C000E44B00240000025870B504460D460A4E45
:1024D00000228021304601F051F8084B2A4621465F
:1024E000074803F0D5F92288064B1A6001228021A3
:1024F000304601F043F870BD00000258A08601008C
:10250000584B0024CC4A002408B510F4004F0DD1DC
:10251000FEF748F80022084BFEF760FE00224FF05D
:102520007C53FEF75BFEFEF7A7F808BD4042C0F300
:102530000E004042ECE700BF0000144008B530B97F
:1025400000224FF40071054801F018F808BD01227F
:102550004FF40071014801F011F8F7E7001002583C
:1025600008B51548154B03604FF4800343604FF4E2
:10257000003383600723C3600023036143614FF08E
:10258000806282614FF04052C261036243628362A3
:10259000C3624FF0804242638363C3630364436456
:1025A0008364C36403654365836502F047FF00B934
:1025B00008BDFFF739FEFBE7D04A00240038004091
:1025C00008B51548154B03604FF4800343600023A2
:1025D00083600F22C2604FF00072026143614FF0CE
:1025E000806282614FF04052C26103624362836243
:1025F000C3624FF0804242638363C36303644364F6
:102600008364C36403654365836502F017FF00B903
:1026100008BDFFF709FEFBE7584B0024003C0040D3
:1026200070B5BCB0044600213791389139913A9188
:102630003B91C02206A805F05BF92368424A934209
:1026400004D0424A93424BD03CB070BD4FF480520C
:102650000023CDE9062306A801F0D2FE00283CD1D4
:102660003B4BD3F8E82042F48042C3F8E820D3F88B
:10267000E82002F480420192019AD3F8E02042F06F
:102680000402C3F8E020D3F8E02002F00402029232
:10269000029AD3F8E02042F00202C3F8E020D3F817
:1026A000E03003F002030393039B0225379538952E
:1026B000002439943A9405263B9637A9254800F022
:1026C00049FE4FF480633793389539943A943B969A
:1026D00037A9214800F03EFEB6E7FFF7A5FDBFE7AA
:1026E0004FF480520023CDE9062306A801F088FEAE
:1026F00038BB174BD3F8E82042F40042C3F8E82077
:10270000D3F8E82002F400420492049AD3F8E020BF
:1027100042F00402C3F8E020D3F8E03003F00403F1
:102720000593059B4FF4E05337930223389300231E
:1027300039933A9306233B9337A9064800F00AFEE3
:1027400082E7FFF771FDD4E700380040003C00400D
:1027500000440258000802580004025882B0074B97
:10276000D3F8F42042F00202C3F8F420D3F8F43096
:1027700003F002030193019B02B07047004402582A
:10278000FEE7FEE7FEE7FEE7FEE7704770477047AB
:1027900008B500F0D7FA08BD08B5082000F0F4FE2F
:1027A00008BD000008B5024803F07FFC08BD00BF6B
:1027B000304C00240120704708B504F0B7FD162303
:1027C00003604FF0FF3008BD08B54FF0FF31FFF751
:1027D000F3FFFEE770B50C461646002506E0AFF3A2
:1027E0000080214601F8010B01350C46B542F6DBAD
:1027F000304670BD70B50C461646002504E014F84E
:10280000010BAFF300800135B542F8DB304670BDF7
:102810004FF0FF3070474FF400534B60002070477B
:10282000012070470020704710B503460C4A0D493F
:102830000D48006840B10C4800680344521A9342A6
:1028400006D8094A136010BD0748084C0460F2E737
:1028500004F06CFD0C2303604FF0FF30F3E700BF82
:102860000000082400040000E04B0024604D002418
:102870002D4B1B6803F00F03062B06D82A4A13685A
:1028800023F00F0343F007031360284B1A6842F04C
:1028900001021A6000221A611968254A0A401A606A
:1028A000214B1B6813F0080F06D01F4A136823F052
:1028B0000F0343F0070313601C4B00229A61DA6197
:1028C0001A621C4999621C49D9621C4919635A63EE
:1028D0009963DA6319645A64196821F480211960D4
:1028E0001A66174B1A68174B1340B3F1005F03D2F7
:1028F000154B0122C3F808210C4BD3F8D43013F444
:10290000805F10D1094BD3F8D42042F48052C3F831
:10291000D4200E4A43F2D2011160D3F8D42022F41D
:102920008052C3F8D420704700200052004402585F
:102930007FEDF6EA000202020000FF0180020101C1
:102940000010005C0000FFFF0080005100400052BA
:10295000054AD36843F00203D360034B5B6813F46A
:10296000005FFAD0704700BF0048025800B58BB036
:102970000023079308930993009301930293039311
:102980000493059306931648164A026043608360D9
:102990004FF6FF72C2600361836103F0C5FCA8B902
:1029A000202307930023099307A90D4803F062FF32
:1029B00078B9002200920192029204926946084876
:1029C00003F05CFD40B90BB05DF804FBFFF72CFC95
:1029D000E6E7FFF729FCECE7FFF726FCF3E700BF8B
:1029E000304C00240008004002680A4B9A4200D094
:1029F000704782B0084BD3F8E82042F00202C3F8D7
:102A0000E820D3F8E83003F002030193019B02B001
:102A1000704700BF000400400044025802680F4B9A
:102A20009A4200D0704700B583B00D4BD3F8E82030
:102A300042F00402C3F8E820D3F8E83003F00403BE
:102A40000193019B002211461E2000F0B9F91E20BF
:102A500000F0ECF903B05DF804FB00BF0008004093
:102A60000044025800B587B00023019302930393FA
:102A70000493059302680E4B9A4202D007B05DF8AA
:102A800004FB0C4BD3F8E02042F00402C3F8E02032
:102A9000D3F8E03003F004030093009B402301933C
:102AA00002230293059301A9034800F053FCE5E7D4
:102AB00000040040004402580008025800B58BB0E2
:102AC00000230793089309930093019302930393C0
:102AD0000493059306931848184A02604F224260F7
:102AE00083606322C2600361836103F04DFCC8B957
:102AF00000230793099307A90F4803F0BBFEA0B971
:102B0000602300936223019300220292049269469B
:102B1000094803F0F0FC58B90748FFF7A3FF0BB0D2
:102B20005DF804FBFFF780FBE2E7FFF77DFBE7E7DB
:102B3000FFF77AFBF0E700BFE44B002400040040FD
:102B400008B51748174B03604FF4E1334360002387
:102B50008360C36003610C2242618361C3610362CD
:102B60004362836204F01FFB70B900210C4804F03B
:102B700092FB60B900210A4804F0B2FB50B9084842
:102B800004F06AFB48B908BDFFF74EFBEDE7FFF71D
:102B90004BFBEFE7FFF748FBF1E7FFF745FBF2E7F9
:102BA0007C4C00240010014010B5B8B00446002150
:102BB00033913491359136913791C02202A804F0B7
:102BC00097FE22681B4B9A4201D038B010BD0122FB
:102BD0000023CDE9022302A801F012FC38BB164BFA
:102BE000D3F8F02042F01002C3F8F020D3F8F02020
:102BF00002F010020092009AD3F8E02042F00202A4
:102C0000C3F8E020D3F8E03003F002030193019B06
:102C10004FF4404333930223349300233593369388
:102C20000423379333A9054800F094FBCDE7FFF761
:102C3000FBFAD4E700100140004402580004025897
:102C4000DFF838D0FFF784FEFFF712FE0C480D497D
:102C50000D4A002302E0D458C4500433C4188C42F7
:102C6000F9D30A4A0A4C002301E013600432A2425D
:102C7000FBD304F061FBFFF739FB70470000082429
:102C800000000024C00900244CE30008C00900240F
:102C90005C4D0024FEE70000104B1B780BB90120AF
:102CA000704710B504464FF47A70B0FBF3F30C4A4A
:102CB0001068B0FBF3F000F0C7F868B90F2C01D929
:102CC00001200AE0002221464FF0FF3000F078F8A2
:102CD000044B1C60002000E0012010BD080000240F
:102CE000000000240C00002410B5032000F056F86A
:102CF00000F0DEFF0F498B69C3F303230E4AD35C58
:102D000003F01F03D8408B6903F00F03D35C03F07B
:102D10001F0320FA03F3094A1360094B18600F20C0
:102D2000FFF7BAFF10B10124204610BD0446FFF79B
:102D300015FDF9E70044025800DF000804000024F4
:102D400000000024034B1B78034A11680B441360F6
:102D5000704700BF08000024104D0024014B186884
:102D6000704700BF104D002438B50446FFF7F6FF4A
:102D70000546B4F1FF3F02D0044B1B781C44FFF71B
:102D8000EDFF401BA042FAD338BD00BF080000246D
:102D9000014B1868000C70470010005C0649CB68B6
:102DA00023F4E0631B041B0C000200F4E060034307
:102DB000024A1A43CA60704700ED00E00000FA05BD
:102DC00000B5174BDB68C3F30223C3F1070CBCF15A
:102DD000040F28BF4FF0040C03F1040EBEF1060FE0
:102DE00014D9033B4FF0FF3E0EFA0CFC21EA0C0114
:102DF00099400EFA03F322EA03031943002807DB84
:102E00000901C9B2074B19545DF804FB0023E9E737
:102E100000F00F000901C9B2034B1954F4E700BFD9
:102E200000ED00E000E400E014ED00E0002807DB26
:102E300000F01F02400901239340024A42F820306B
:102E4000704700BF00E100E00138B0F1807F0BD295
:102E50004FF0E0235861054AF02182F8231000204A
:102E6000986107221A6170470120704700ED00E069
:102E7000BFF35F8F044B5A6A22F480325A620022F9
:102E8000C3F89420704700BF00ED00E040F001005F
:102E9000054BC3F894005A6A42F480325A62BFF379
:102EA0004F8FBFF36F8F704700ED00E04378144AF7
:102EB000C2F89830D2F8A03023F00103C2F8A03055
:102EC0004368C2F89C30017BC37A1B0643EA017356
:102ED000817A43EAC143417B43EA8143817B43EAF0
:102EE0004143C17B43EA0143417A43EA0123017A2A
:102EF00043EA410301780B43C2F8A030704700BF9A
:102F000000ED00E0F0B4876D0468664E664DAC429B
:102F100018BFB44242D01835AC423FD01835AC424D
:102F20003CD01835AC4239D01835AC4236D01835C3
:102F3000AC4233D01835AC4230D005F55675AC42B2
:102F40002CD01835AC4229D01835AC4226D01835D3
:102F5000AC4223D01835AC4220D01835AC421DD03D
:102F60001835AC421AD01835AC4217D04F4DAC4290
:102F700014D01435AC4211D01435AC420ED01435F7
:102F8000AC420BD01435AC4208D01435AC4205D05D
:102F90001435AC4202D01435AC4207D1446E856E74
:102FA0006560C46E14B1046F456F656004683D4E82
:102FB0003D4DAC4218BFB44252D01835AC424FD050
:102FC0001835AC424CD01835AC4249D01835AC421B
:102FD00046D01835AC4243D01835AC4240D005F548
:102FE0005675AC423CD01835AC4239D01835AC429D
:102FF00036D01835AC4233D01835AC4230D0183505
:10300000AC422DD01835AC422AD01835AC4227D06E
:10301000264E274DAC4218BFB44211D0254DAC42CC
:103020000ED01435AC420BD01435AC4208D0143558
:10303000AC4205D01435AC4202D01435AC4224D198
:10304000C46D04F01F050124AC407C60046863601B
:103050008368402B20D0036899600368DA6014E02D
:10306000C46D04F01F0C3F2404FA0CF4BC60056826
:103070002C6824F480242C60046863608368402BEF
:1030800005D0036899600368DA60F0BC7047036894
:103090009A600368D960F8E703689A600368D960AA
:1030A000F3E700BF10000240280002400854025815
:1030B0001C54025830540258002800F03E8170B56C
:1030C000044690F83400012800F03981012084F88A
:1030D000340094F83500C0B2012807D04FF40063E3
:1030E0006365002384F83430012070BD022084F829
:1030F0003500002060652068924E934DA84218BFAD
:10310000B0422FD01835A8422CD01835A84229D06B
:103110001835A84226D01835A84223D01835A84221
:1031200020D01835A8421DD005F55675A84219D0F3
:103130001835A84216D01835A84213D01835A84221
:1031400010D01835A8420DD01835A8420AD018352D
:10315000A84207D01835A84204D0056825F001051B
:10316000056003E0056825F0010505602046FFF7CE
:10317000C9FE23687349744A934218BF8B4238D002
:103180001832934235D01832934232D018329342DB
:103190002FD0183293422CD01832934229D01832B3
:1031A000934226D002F55672934222D018329342AF
:1031B0001FD0183293421CD01832934219D01832C3
:1031C000934216D01832934213D01832934210D043
:1031D000183293420DD01A6822F00E0242F00A0211
:1031E0001A60236C93B12268136843F004031360E0
:1031F0000CE01A6822F01E0242F016021A60236CDC
:1032000023B12268136843F00803136023684D4913
:103210004D4A934218BF8B4242D0183293423FD05E
:10322000183293423CD01832934239D0183293422C
:1032300036D01832934233D01832934230D002F550
:10324000567293422CD01832934229D018329342AE
:1032500026D01832934223D01832934220D018320D
:1032600093421DD0183293421AD01832934217D08D
:10327000364A934214D01432934211D014329342FE
:103280000ED0143293420BD01432934208D0143231
:10329000934205D01432934202D0143293420ED19D
:1032A000236E1A6812F4803F03D01A6842F48072C9
:1032B0001A60E36E1BB11A6842F480721A602368C8
:1032C0002049214A934218BF8B4230D01832934292
:1032D0002DD0183293422AD01832934227D0183278
:1032E000934224D01832934221D0183293421ED0F8
:1032F00002F5567293421AD01832934217D0183200
:10330000934214D01832934211D0183293420ED007
:10331000183293420BD01832934208D0183293429D
:1033200005D01A6842F001021A600020DDE61A6832
:1033300042F001021A600020D7E601207047022007
:10334000D3E600BF10000240280002400854025893
:10335000406D704770B582B000236EE085685E00F6
:103360000324B44025EA0405CC68B4402C438460AF
:10337000446824EA0C0C4C68C4F300149C4044EAF2
:103380000C0444606CE0DD08083550F8256003F05B
:1033900007044FEA840C0F2404FA0CF426EA040E06
:1033A0000C6904FA0CF444EA0E0440F825406FE07E
:1033B000092400E0002404FA0EF42C430CF1020C62
:1033C0006B4D45F82C404FF0B0442568D44325EAB6
:1033D0000206D1F804C01CF4801F01D042EA0506A1
:1033E0004FF0B0452E606D6804EA0506D1F804C0C0
:1033F0001CF4001F01D042EA05064FF0B0456E6094
:10340000D5F8845004EA0506D1F804C01CF4003F46
:1034100001D042EA05064FF0B045C5F88460D5F802
:1034200080502C404E6816F4803F01D042EA0504DB
:103430004FF0B042C2F8804001330A6832FA03F418
:1034400000F093804FF0010C0CFA03FC1CEA02021E
:10345000F2D04C6804F00304013C012C7FF67EAFEF
:103460004C6804F00304032C0CD0C4685D004FF0DA
:10347000030C0CFA05FC24EA0C0C8C68AC4044EA02
:103480000C04C4604C6804F00304022C3FF47BAFCE
:1034900004684FEA430E4FF0030C0CFA0EFC24EACA
:1034A0000C0C4C6804F0030404FA0EF444EA0C0417
:1034B00004604C6814F4403FBED02E4CD4F8F45055
:1034C00045F00205C4F8F450D4F8F44004F00204C6
:1034D0000194019C4FEA930C0CF10205244C54F822
:1034E000255003F003044FEA840E0F2404FA0EF46F
:1034F00025EA0405204CA0423FF45CAF04F580644B
:10350000A04222D004F58064A04220D004F580645B
:10351000A0421ED004F58064A0421CD004F5806453
:10352000A0421AD004F58064A04218D004F580644B
:10353000A04216D004F58064A04214D004F5806443
:10354000A0423FF435AF0A2435E7012433E70224D3
:1035500031E703242FE704242DE705242BE7062475
:1035600029E7072427E7082425E702B070BD00BF3C
:103570000004005800440258000002580AB181615A
:10358000704709048161704708B54FF0B043D3F824
:103590008830034200D108BD4FF0B043C3F8880023
:1035A000FEF71AFEF7E70000134BDB6813F0040F79
:1035B00007D1114BDB6803F0070383421AD00120C7
:1035C000704710B50C4AD36823F007031843D06046
:1035D000FFF7C4FB0446084B5B6813F4005F07D198
:1035E000FFF7BCFB001BB0F57A7FF4D9012000E0A7
:1035F000002010BD0020704700480258002800F04D
:10360000398338B50446036813F0010F25D0944A76
:10361000136903F03803926A102B15D0182B0FD0C2
:103620006368B3F5803F3FD0002B53D18C4B1A68B1
:1036300022F480321A601A6822F480221A6038E07C
:1036400002F00302022AEBD1854B1B6813F4003F02
:1036500003D06368002B00F00F83236813F0020F80
:1036600000F0A1807E4A1369926A13F038035AD0A1
:10367000182B55D0E368002B00F0DE8078490A68EB
:1036800022F0190213430B60FFF768FB0546744BE9
:103690001B6813F0040F40F0AD80FFF75FFB401B89
:1036A0000228F4D90320EEE26D4A136843F4803314
:1036B000136063682BB3FFF751FB0546684B1B682B
:1036C00013F4003FC9D1FFF749FB401B6428F5D92B
:1036D0000320D8E2B3F5A02F09D0614B1A6822F479
:1036E00080321A601A6822F480221A60E1E75C4B8B
:1036F0001A6842F480221A601A6842F480321A6012
:10370000D7E7FFF72BFB0546554B1B6813F4003F2B
:10371000A3D0FFF723FB401B6428F5D90320B2E2B6
:1037200012F0030FA6D14E4B1B6813F0040F03D009
:10373000E368002B00F0A282494A136823F01903C2
:10374000E1680B431360FFF709FB0546444B1B6818
:1037500013F0040F06D1FFF701FB401B0228F5D937
:10376000032090E2FFF714FB41F20303984212D8C2
:103770002269402A07D03A494B6823F47C3343EA54
:1037800002334B600FE0364A536823F47C3343F432
:103790000033536007E0324A536823F0FE43216947
:1037A00043EA01635360236813F0100F00F0888030
:1037B0002B4A136903F03803926A082B56D0182B52
:1037C00050D0E369002B00F0B880254A136843F01D
:1037D00080031360FFF7C2FA0546214B1B6813F400
:1037E000807F40F08880FFF7B9FA401B0228F4D9A7
:1037F000032048E2FFF7CCFA41F20303984212D8C3
:103800002269402A07D016494B6823F47C3343EAE7
:1038100002334B60C7E7124A536823F47C3343F406
:1038200000335360BFE70E4A536823F0FE4321691B
:1038300043EA01635360B6E7094A136823F00103C2
:103840001360FFF78BFA0546054B1B6813F0040F56
:10385000A9D0FFF783FA401B0228F5D9032012E212
:103860000044025802F00302012AAAD1A14B1B68AE
:1038700013F4807F03D0E369802B40F00182FFF7CF
:1038800087FA41F20303984212D8226A202A07D00D
:1038900098494B6823F0F84343EA82634B600FE09A
:1038A000944A536823F0F84343F08043536007E0A1
:1038B000904AD36823F07C53216A43EA0163D360C2
:1038C000236813F0080F60D06369002B49D0894A40
:1038D000536F43F001035367FFF740FA0546854BEA
:1038E0005B6F13F0020F50D1FFF738FA401B02282C
:1038F000F5D90320C7E1FFF74BFA41F203039842E1
:1039000012D8226A202A07D07A494B6823F0F8435C
:1039100043EA82634B60D3E7764A536823F0F84367
:1039200043F080435360CBE7724AD36823F07C5363
:10393000216A43EA0163D360C2E76E4A136823F049
:1039400080031360FFF70AFA05466A4B1B6813F4FD
:10395000807FB5D0FFF702FA401B0228F5D903207B
:1039600091E1644A536F23F001035367FFF7F6F9BF
:103970000546604B5B6F13F0020F06D0FFF7EEF9C0
:10398000401B0228F5D903207DE1236813F0200FA6
:1039900029D0A3699BB1574A136843F4805313603D
:1039A000FFF7DCF90546534B1B6813F4005F1AD18F
:1039B000FFF7D4F9401B0228F5D9032063E14D4AF3
:1039C000136823F480531360FFF7C8F90546494B89
:1039D0001B6813F4005F06D0FFF7C0F9401B0228F4
:1039E000F5D903204FE1236813F0040F21D1636A56
:1039F000002B00F047813F4A126902F03802182A72
:103A000000F0EE80022B79D03A4A136823F08073DD
:103A10001360FFF7A3F90446364B1B6813F0007FD1
:103A200000F0DC80FFF79AF9001B0228F4D903208C
:103A300029E1314A136843F480731360FFF78EF96C
:103A400005462D4B1B6813F4807F06D1FFF786F9DE
:103A5000401B6428F5D9032015E1A368012B0AD087
:103A60000BBB244B1A6F22F001021A671A6F22F067
:103A700004021A6704E01F4A136F43F0010313673F
:103A8000A36833B3FFF76AF905461A4B1B6F13F0AF
:103A9000020FACD1FFF762F9401B41F28833984224
:103AA000F3D90320EFE0052B09D0124B1A6F22F057
:103AB00001021A671A6F22F004021A67E0E70D4B41
:103AC0001A6F42F004021A671A6F42F001021A6775
:103AD000D6E7FFF743F90546064B1B6F13F0020FBD
:103AE00085D0FFF73BF9401B41F288339842F3D968
:103AF0000320C8E00044025800480258694A13688D
:103B000023F080731360FFF729F90546654B1B68A6
:103B100013F0007F06D0FFF721F9401B0228F5D9EA
:103B20000320B0E05F4B996A5F4A0A40A16AE06AED
:103B300041EA00110A439A62226B013AC2F3080279
:103B4000616B0139490289B20A43A16B0139090449
:103B500001F4FE010A43E16B0139090601F0FE415F
:103B60000A431A63DA6A22F00102DA62596B4F4A99
:103B70000A40A16C42EAC1025A63DA6A22F00C02DE
:103B8000216C0A43DA62DA6A22F00202616C0A43AB
:103B9000DA62DA6A42F48032DA62DA6A42F40032D5
:103BA000DA62DA6A42F48022DA62DA6A42F0010208
:103BB000DA621A6842F080721A60FFF7CFF80446A2
:103BC000384B1B6813F0007F06D1FFF7C7F8001BC6
:103BD0000228F5D9032056E0002054E0002052E0EE
:103BE000304A916A106B012B4ED001F00303A26A98
:103BF00093424BD1C1F30511E36A994248D1C0F316
:103C00000802236B013B9A4244D1C0F34622636B06
:103C1000013B9A4240D1C0F30642A36B013B9A425A
:103C20003CD1C0F30660E36B013B984238D11D4B99
:103C30005B6BC3F3CC03A26C9A4201D1002022E05B
:103C4000184AD36A23F00103D362FFF787F80546C9
:103C5000FFF784F8A842FBD0124A516B134B0B407C
:103C6000A16C43EAC1035363D36A43F00103D362F7
:103C7000002008E001207047012004E0012002E05C
:103C8000012000E0002038BD0120FCE70120FAE718
:103C90000120F8E70120F6E70120F4E70120F2E730
:103CA0000120F0E7004402580CFCFFFF0700FFFF73
:103CB000F8B57E4B1B6903F03803102B00F0F2803F
:103CC000182B10D013B17A4C2046F8BD774B1B68E7
:103CD00013F0200F00F0E880744B1868C0F3C100A7
:103CE000744CC440F0E7714B9D6A05F003059C6A73
:103CF000C4F30514D86A00F001005B6BC3F3CC0376
:103D000003FB00F0FCF7BEFD0646002CDCD0012DC5
:103D100076D0022D00F0A4800DB32046FCF7B2FD52
:103D200001466548FCF7BAFE0446604B186BC0F3C9
:103D30000800FCF7A7FD05464FF064513046FCF73C
:103D4000F9FD01462846FCF7EDFC4FF07E51FCF7EB
:103D5000E9FC01462046FCF7EDFD044671E0534BBB
:103D60001B6813F0200F29D0504F3B68C3F3C103E9
:103D70005048D840FCF786FD05462046FCF782FDFA
:103D800001462846FCF78AFE0446386BC0F308005B
:103D9000FCF778FD05464FF064513046FCF7CAFD4C
:103DA00001462846FCF7BEFC4FF07E51FCF7BAFCFA
:103DB00001462046FCF7BEFD044642E02046FCF7E3
:103DC00061FD01463D48FCF769FE0446374B186B20
:103DD000C0F30800FCF756FD05464FF0645130462D
:103DE000FCF7A8FD01462846FCF79CFC4FF07E51ED
:103DF000FCF798FC01462046FCF79CFD044620E0B9
:103E00002046FCF73FFD01462B48FCF747FE0446E1
:103E1000264B186BC0F30800FCF734FD05464FF045
:103E200064513046FCF786FD01462846FCF77AFCD3
:103E30004FF07E51FCF776FC01462046FCF77AFDF8
:103E400004461A4B1B6BC3F34623581CFCF71AFDA0
:103E500001462046FCF722FEFCF7BCFE044633E791
:103E60002046FCF70FFD01461548FCF717FE0446F7
:103E70000E4B186BC0F30800FCF704FD05464FF02D
:103E800064513046FCF756FD01462846FCF74AFCD3
:103E90004FF07E51FCF746FC01462046FCF74AFDF8
:103EA0000446CEE7074C0FE7024C0DE700440258EA
:103EB00000093D000090D0030024744A0024744C93
:103EC00020BCBE4B40787D01002800F0328170B5E7
:103ED0000D4604469B4B1B6803F00F038B420BD22D
:103EE000984A136823F00F030B431360136803F021
:103EF0000F038B4240F01F81236813F0040F0CD096
:103F00002269914B9B6903F070039A4205D98E494F
:103F10008B6923F070031A438A61236813F0080F3A
:103F20000CD06269884BDB6903F070039A4205D9B3
:103F30008549CB6923F070031A43CA61236813F0E3
:103F4000100F0CD0A269804BDB6903F4E0639A4246
:103F500005D97D49CB6923F4E0631A43CA6123681C
:103F600013F0200F0CD0E269774B1B6A03F070034B
:103F70009A4205D974490B6A23F070031A430A6206
:103F8000236813F0020F0CD0E2686F4B9B6903F0BB
:103F90000F039A4205D96C498B6923F00F031A432A
:103FA0008A61236813F0010F41D0674A936923F4B3
:103FB0007063A1680B4393616368022B0AD0032BE3
:103FC00027D0012B2CD0604A126812F0040F06D1C2
:103FD0000120ADE0126812F4003F00F0AE805A49B3
:103FE0000A6922F0070213430B61FEF7B7FE06468B
:103FF000554B1B6903F038036268B3EBC20F16D050
:10400000FEF7ACFE801B41F288339842F0D90320C2
:104010008EE04D4A126812F0007FE0D1012087E067
:10402000494A126812F4807FD9D1012080E02368C8
:1040300013F0020F0CD0E268434B9B6903F00F03AF
:104040009A4205D240498B6923F00F031A438A61D3
:104050003C4B1B6803F00F03AB420AD9394A136883
:1040600023F00F032B431360136803F00F03AB42DD
:1040700065D1236813F0040F0CD02269324B9B6981
:1040800003F070039A4205D22F498B6923F0700325
:104090001A438A61236813F0080F0CD062692A4B17
:1040A000DB6903F070039A4205D22749CB6923F0FC
:1040B00070031A43CA61236813F0100F0CD0A26971
:1040C000214BDB6903F4E0639A4205D21E49CB69B8
:1040D00023F4E0631A43CA61236813F0200F0CD065
:1040E000E269194B1B6A03F070039A4205D2164924
:1040F0000B6A23F070031A430A62FFF7D9FD1249D5
:104100008B69C3F30323114AD35C03F01F03D84028
:104110008B6903F00F03D35C03F01F0320FA03F352
:104120000B4A13600B4B18600B4B1868FEF7B4FD7D
:1041300070BD012070470120FAE70120F8E7012057
:10414000F6E700BF002000520044025800DF0008DC
:1041500004000024000000240C00002408B5FFF730
:10416000A7FD0B4A9369C3F303230A49CB5C03F011
:104170001F0320FA03F3926902F00F02885C00F03B
:104180001F0023FA00F0044A1060044A136008BDBF
:104190000044025800DF000804000024000000244E
:1041A00008B5FFF7DBFF054BDB69C3F30213044AD5
:1041B000D35C03F01F03D84008BD00BF0044025881
:1041C00000DF000808B5FFF7C9FF054BDB69C3F343
:1041D0000223044AD35C03F01F03D84008BD00BF8C
:1041E0000044025800DF0008404B9B6A03F00303C1
:1041F000032B79D070B505460E463C4A136823F070
:1042000080631360FEF7AAFD0446384B1B6813F069
:10421000006F06D0FEF7A2FD031B022BF5D9032089
:1042200070BD324B9A6A22F47C32296842EA01322C
:104230009A626A68013AC2F30802A9680139490220
:1042400089B20A43E9680139090401F4FE010A430D
:1042500029690139090601F0FE410A439A63DA6AC5
:1042600022F0C00269690A43DA62DA6A22F02002A7
:10427000A9690A43DA62DA6A22F01002DA62D96BBB
:104280001B4A0A40E96942EAC102DA63DA6A42F08B
:104290001002DA62C6B91A46DB6A43F40023D3621D
:1042A000124A136843F080631360FEF757FD04461B
:1042B0000E4B1B6813F0006F14D1FEF74FFD001B6F
:1042C0000228F5D90320ABE7012E05D0074AD36AAF
:1042D00043F40013D362E3E7044AD36A43F4801340
:1042E000D362DDE700209BE70120704700440258BD
:1042F0000700FFFF404B9B6A03F00303032B79D0B9
:1043000070B505460E463C4A136823F0805313608F
:10431000FEF724FD0446384B1B6813F0005F06D0FF
:10432000FEF71CFD031B022BF5D9032070BD324B99
:104330009A6A22F07C72296842EA01529A626A689B
:10434000013AC2F30802A9680139490289B20A4355
:10435000E9680139090401F4FE010A4329690139B8
:10436000090601F0FE410A431A64DA6A22F4406247
:1043700069690A43DA62DA6A22F40072A9690A43B7
:10438000DA62DA6A22F48072DA62596C1B4A0A40F5
:10439000E96942EAC1025A64DA6A42F48072DA6276
:1043A000C6B91A46DB6A43F48003D362124A136823
:1043B00043F080531360FEF7D1FC04460E4B1B689C
:1043C00013F0005F14D1FEF7C9FC001B0228F5D9D9
:1043D0000320ABE7012E05D0074AD36A43F0807370
:1043E000D362E3E7044AD36A43F40003D362DDE710
:1043F00000209BE701207047004402580700FFFFA0
:10440000F8B50446036813F0006F30D0836EB3F53F
:10441000001F26D00ED8EBB1B3F5801F07D10221C3
:104420000830FFF7E1FE054645B12E4621E00126A2
:1044300035461EE0B3F5401F09D10025984A136D9B
:1044400023F44013A16E0B431365002611E00126EF
:1044500035460EE0924AD36A43F40033D362002516
:10446000ECE702212830FFF745FF0546DCE7002690
:104470003546236813F4807F14D0A36D042B32D803
:10448000DFE803F003232A080800854AD36A43F4CF
:104490000033D36255BB824A136D23F00703A16D2D
:1044A0000B431365236813F4007F31D0E36D802B39
:1044B0004CD020D8002B43D0402B19D1002104F13F
:1044C0000800FFF791FE05461AE0002104F10800FC
:1044D000FFF78AFE0546DDE7002104F12800FFF71B
:1044E00009FF0546D6E701263546DBE72E46D9E724
:1044F000012635460CE0C02B02D0B3F5807F1CD1DD
:104500005DBB674A136D23F4E073E16D0B431365E4
:10451000236813F4806F46D0D4F8A830B3F5800F29
:1045200039D01FD88BB3B3F5001F18D1002104F187
:104530000800FFF759FE05461AE001263546E7E771
:10454000574AD36A43F40033D362D9E7002104F118
:104550002800FFF7CFFE0546D2E72E46D8E7012612
:10456000354620E0B3F5C00F02D0B3F5000F09D1F6
:10457000C5B94B4A936D23F46003D4F8A8100B43DC
:10458000936510E0012635460DE0454AD36A43F4B1
:104590000033D362ECE7002104F12800FFF7AAFE04
:1045A0000546E5E72E46236813F4006F24D0D4F8BF
:1045B000AC30B3F1007F42D00ED8002B39D0B3F12C
:1045C000807F06D1002104F10800FFF70DFE0546AB
:1045D00008E0012635460FE0B3F1407F02D0B3F189
:1045E000806F23D1002D31D12D4A936D23F0E063EC
:1045F000D4F8AC100B439365236813F0007F2ED0E2
:10460000E36C202B40D026D833B1102B20D1244A84
:10461000D36A43F40033D362002D3CD1204AD36CDB
:1046200023F03003E16C0B43D36418E001263546D8
:10463000E2E71B4AD36A43F40033D362D2E7002196
:1046400004F12800FFF756FE0546CBE72E46D3E7D8
:104650000126354603E0302BDED00126354623689F
:1046600013F4805F2DD0236EB3F5005F4FD019D8BF
:10467000002B46D0B3F5805F0FD1002104F1080074
:10468000FFF7B2FD054613E0022104F10800FFF731
:10469000ABFD0546C0E72E46E1E70126354610E0B2
:1046A00000440258B3F5405F02D0B3F5804F25D1E6
:1046B000002D33D1774A136D23F4E043216E0B4371
:1046C0001365236813F4005F38D0636EB3F5003FC1
:1046D00053D028D843B1B3F5803F21D1012104F153
:1046E0000800FFF781FD0546002D4DD1694A136D85
:1046F00023F4E023616E0B4313651FE0012635466A
:10470000DFE7644AD36A43F40033D362D0E7002181
:1047100004F12800FFF7EEFD0546C9E72E46D0E775
:10472000012635460AE0B3F5802FDDD0B3F5A02F82
:10473000DAD0B3F5403FD7D001263546236813F4CD
:10474000804F31D0D4F8B030B3F1005F45D020D8DD
:1047500043B1B3F1805F19D1012104F10800FFF7E3
:1047600043FD0546002D3FD14A4A936D23F0E043B7
:10477000D4F8B0100B43936516E0012104F1280032
:10478000FFF7B8FD0546AFE72E46D7E701263546C9
:104790000AE0B3F1804FE5D0B3F1A04FE2D0B3F11E
:1047A000405FDFD001263546236813F4004F09D05F
:1047B000236FB3F1805F19D0B3F1005F24D0D3B180
:1047C00001263546236813F0807F33D0A36C032B7A
:1047D0005BD8DFE803F027225327012104F12800EA
:1047E000FFF788FD0546BDE72E46DDE7294AD36A77
:1047F00043F40033D36275B9264A136D23F0405356
:10480000216F0B431365DDE7012104F10800FFF779
:10481000EBFC0546EFE72E46D4E71E4AD36A43F485
:104820000033D362A5BB1B4AD36C23F00303A16CF6
:104830000B43D364236813F4800F2DD1236813F046
:10484000010F00F0A580E36F282B00F29F80DFE8C6
:1048500003F08D9D9D9D9D9D9D9D879D9D9D9D9DF5
:104860009D9D969D9D9D9D9D9D9D8D9D9D9D9D9D8F
:104870009D9D8D9D9D9D9D9D9D9D8D00022104F181
:104880000800FFF7B1FC0546CCE701263546D1E725
:104890002E46CFE700440258914A136843F48073D0
:1048A0001360FEF75BFA07468D4B1B6813F4807F9D
:1048B00005D1FEF753FAC01B6428F5D90325002D56
:1048C0004AD1884B1B6FD4F8B420534013F4407F77
:1048D0000CD0844B1A6F22F44072196F41F480316E
:1048E0001967196F21F4803119671A67D4F8B43049
:1048F000B3F5807F15D08DBBD4F8B43003F440728B
:10490000B2F5407F1ED0774A136923F47C531361BC
:1049100074490B6FD4F8B420C2F30B0213430B6736
:104920008CE7FEF71BFA07466E4B1B6F13F0020F66
:10493000E1D1FEF713FAC01B41F288339842F3D954
:104940000325D8E76748026922F47C52664901EAE8
:10495000131313430361DBE72E466FE72E466DE723
:10496000012104F10800FFF73FFC0546E5B95D4A67
:10497000536D23F03803E16F0B43536508E00121C9
:1049800004F12800FFF7B6FC0546EFE7012635469F
:10499000236813F0020F17D0A36F052B28D8DFE888
:1049A00003F00B05200B0B0B2E46F1E7012104F160
:1049B0000800FFF719FC0546EDB94A4A536D23F08C
:1049C0000703A16F0B435365236813F0040F23D033
:1049D000D4F89430052B45D8DFE803F0150F3D15CA
:1049E0001515012104F12800FFF784FC0546E3E7D3
:1049F00001263546E8E72E46E6E7012104F10800E6
:104A0000FFF7F2FB054685BB364A936D23F007039B
:104A1000D4F894100B439365236813F0200F34D01F
:104A2000D4F89030B3F1005F4ED023D843B1B3F146
:104A3000805F1CD1002104F10800FFF7D5FB05467B
:104A4000002D48D1274A536D23F0E043D4F890104D
:104A50000B43536519E0012104F12800FFF74AFCDC
:104A60000546D0E701263546D6E72E46D4E701268F
:104A700035460AE0B3F1804FE2D0B3F1A04FDFD06A
:104A8000B3F1405FDCD001263546236813F0400FB8
:104A900037D0D4F89C30B3F5006F53D026D843B14B
:104AA000B3F5806F19D1002104F10800FFF79CFBDA
:104AB0000546002D4DD10B4A936D23F4E053D4F8F5
:104AC0009C100B4393651CE0022104F12800FFF7C2
:104AD00011FC0546B4E72E46D7E70126354610E01F
:104AE0000048025800440258CFFFFF00B3F5805F32
:104AF000DFD0B3F5A05FDCD0B3F5406FD9D001268D
:104B00003546236813F0800F33D0D4F8A030B3F5C6
:104B1000804F00F0A38021D843B1B3F5005F1AD1D4
:104B2000002104F10800FFF75FFB0546002D40F06F
:104B30009C80814A936D23F46043D4F8A0100B430A
:104B4000936516E0022104F12800FFF7D3FB054628
:104B5000AFE72E46D5E7012635460AE0B3F5004F0C
:104B6000E4D0B3F5204FE1D0B3F5C04FDED001263D
:104B70003546236813F0080F0CD0D4F88430B3F511
:104B8000805F74D06C4A536D23F44053D4F8841082
:104B90000B435365236813F0100F0CD0D4F89830F2
:104BA000B3F5807F6CD0644A936D23F44073D4F8DE
:104BB00098100B439365236813F4002F0BD0D4F89F
:104BC000A430B3F5803F74D0B3F5003F67D0002B1D
:104BD0005FD001263546236813F4802F0CD0D4F81B
:104BE0008830B3F5001F7CD0B3F5401F6FD0B3F50C
:104BF000801F67D001263546236813F4803F08D014
:104C0000236D002B76D0B3F5803F00F08180012624
:104C10003546236813F0005F40F08380236813F467
:104C2000003F00F08E80D4F88030B3F5807F00F034
:104C3000EC8040F28380B3F5007F03D0B3F5407F72
:104C400040F0E180002D40F0E6803B4A536D23F4B4
:104C50004073D4F880100B43536572E0022104F1D5
:104C60002800FFF747FB054660E72E4681E7022153
:104C700004F12800FFF73EFB002883D0012681E7DE
:104C8000022104F12800FFF735FB00288BD0012614
:104C900089E7002104F10800FFF7A6FA05467DB96F
:104CA000254A936D23F44033D4F8A4100B43936545
:104CB00091E7022104F12800FFF71CFB0546EEE70F
:104CC0002E4688E71C4AD36A43F40033D3627DB989
:104CD000194A536D23F44013D4F888100B435365DD
:104CE0008AE7012104F12800FFF704FB0546EEE7FF
:104CF0002E4681E7104AD36A43F40033D36275B974
:104D00000D4AD36C23F48033216D0B43D36480E7C9
:104D1000022104F10800FFF767FA0546EFE72E4687
:104D200077E7022104F12800FFF7E4FA00283FF4B6
:104D300075AF012672E700BF00440258002B81D0F6
:104D40000126236813F4801F06D04F4A136D23F009
:104D50000043616F0B431365236813F0805F07D036
:104D6000494A136923F48043D4F8B8100B43136104
:104D7000236813F4001F06D0434A136D23F0807399
:104D8000E16E0B431365236813F0804F09D03E4B4F
:104D90001A6922F400421A611A69D4F8BC100A4355
:104DA0001A612368002B06DA374AD36C23F040538C
:104DB000616D0B43D364236813F4000F07D0324AAC
:104DC000536D23F44003D4F88C100B435365636890
:104DD00013F0010F21D1636813F0020F26D163682D
:104DE00013F0040F2BD1636813F0080F30D1636800
:104DF00013F0100F35D1636813F0200F3AD106B1CC
:104E000001263046F8BD01269BE71F4AD36A43F4CA
:104E10000033D36216E72E4693E7002104F1080021
:104E2000FFF7E2F90028D6D00646D4E7012104F1C5
:104E30000800FFF7D9F90028D1D00646CFE70221B4
:104E400004F10800FFF7D0F90028CCD00646CAE7E5
:104E5000002104F12800FFF74DFA0028C7D00646CC
:104E6000C5E7012104F12800FFF744FA0028C2D069
:104E70000646C0E7022104F12800FFF73BFA0028AC
:104E8000BDD00646BBE700BF0044025808B5FFF797
:104E900065F9054B1B6AC3F30213044AD35C03F0A4
:104EA0001F03D84008BD00BF0044025800DF0008BF
:104EB0002DE9F0410446864B9D6A9E6AC6F305368D
:104EC000D86AC0F30010DB6BC3F3CC0303FB00F024
:104ED000FBF7D8FC002E00F0F58005F0030507462F
:104EE000012D79D0022D00F0CB800DB33046FBF7B9
:104EF000C9FC01467748FBF7D1FD0546744B986B1A
:104F0000C0F30800FBF7BEFC06464FF0645138467C
:104F1000FBF710FD01463046FBF704FC4FF07E51D5
:104F2000FBF700FC01462846FBF704FD054674E04C
:104F3000674B1B6813F0200F2CD0DFF89481D8F852
:104F40000030C3F3C1036448D840FBF79BFC05461F
:104F50003046FBF797FC01462846FBF79FFD0546C8
:104F6000D8F83800C0F30800FBF78CFC06464FF079
:104F700064513846FBF7DEFC01463046FBF7D2FBB6
:104F80004FF07E51FBF7CEFB01462846FBF7D2FCE3
:104F9000054642E03046FBF775FC01464F48FBF7FB
:104FA0007DFD05464A4B986BC0F30800FBF76AFC91
:104FB00006464FF064513846FBF7BCFC01463046CC
:104FC000FBF7B0FB4FF07E51FBF7ACFB01462846E8
:104FD000FBF7B0FC054620E03046FBF753FC0146EA
:104FE0003C48FBF75BFD0546394B986BC0F3080066
:104FF000FBF748FC06464FF064513846FBF79AFC35
:1050000001463046FBF78EFB4FF07E51FBF78AFBE3
:1050100001462846FBF78EFC05462D4EB06BC0F3CB
:105020004620FBF72FFC4FF07E51FBF77BFB014640
:105030002846FBF733FDFBF7CDFD2060B06BC0F3D6
:105040000640FBF71FFC4FF07E51FBF76BFB014660
:105050002846FBF723FDFBF7BDFD6060B06BC0F396
:105060000660FBF70FFC4FF07E51FBF75BFB014640
:105070002846FBF713FDFBF7ADFDA060BDE8F0810E
:105080003046FBF7FFFB01461548FBF707FD0546D9
:105090000F4B986BC0F30800FBF7F4FB06464FF08C
:1050A00064513846FBF746FC01463046FBF73AFBB5
:1050B0004FF07E51FBF736FB01462846FBF73AFCE2
:1050C0000546AAE7002323606360A360D6E700BF1C
:1050D000004402580024744A0090D0030024744C09
:1050E00020BCBE4B2DE9F0410446864B9D6A9E6A6A
:1050F000C6F30556D86AC0F300205B6CC3F3CC033B
:1051000003FB00F0FBF7BEFB002E00F0F58005F07E
:1051100003050746012D79D0022D00F0CB800DB399
:105120003046FBF7AFFB01467748FBF7B7FC054677
:10513000744B186CC0F30800FBF7A4FB06464FF055
:1051400064513846FBF7F6FB01463046FBF7EAFAB6
:105150004FF07E51FBF7E6FA01462846FBF7EAFBE3
:10516000054674E0674B1B6813F0200F2CD0DFF866
:105170009481D8F80030C3F3C1036448D840FBF7EA
:1051800081FB05463046FBF77DFB01462846FBF7D1
:1051900085FC0546D8F84000C0F30800FBF772FB19
:1051A00006464FF064513846FBF7C4FB01463046D3
:1051B000FBF7B8FA4FF07E51FBF7B4FA01462846E8
:1051C000FBF7B8FB054642E03046FBF75BFB0146C8
:1051D0004F48FBF763FC05464A4B186CC0F30800C8
:1051E000FBF750FB06464FF064513846FBF7A2FB35
:1051F00001463046FBF796FA4FF07E51FBF792FAE4
:1052000001462846FBF796FB054620E03046FBF7B3
:1052100039FB01463C48FBF741FC0546394B186C0D
:10522000C0F30800FBF72EFB06464FF064513846EA
:10523000FBF780FB01463046FBF774FA4FF07E51D6
:10524000FBF770FA01462846FBF774FB05462D4E26
:10525000306CC0F34620FBF715FB4FF07E51FBF797
:1052600061FA01462846FBF719FCFBF7B3FC206006
:10527000306CC0F30640FBF705FB4FF07E51FBF7A7
:1052800051FA01462846FBF709FCFBF7A3FC6060D6
:10529000306CC0F30660FBF7F5FA4FF07E51FBF778
:1052A00041FA01462846FBF7F9FBFBF793FCA060A7
:1052B000BDE8F0813046FBF7E5FA01461548FBF7FB
:1052C000EDFB05460F4B186CC0F30800FBF7DAFA4C
:1052D00006464FF064513846FBF72CFB014630463A
:1052E000FBF720FA4FF07E51FBF71CFA01462846E7
:1052F000FBF720FB0546AAE7002323606360A36059
:10530000D6E700BF004402580024744A0090D0033E
:105310000024744C20BCBE4B10B4026853699169E0
:1053200041F00801916101688A6942F010028A61C6
:1053300001680A6822F001020A6001680C69284AC3
:1053400022400A6101688A6822F440428A6090F82B
:105350008120D2B2042A0DD013F0200F0AD0D0F849
:10536000842042F08002C0F8842001688A6942F0FB
:1053700020028A6190F88120D2B2032A0DD013F066
:10538000400F0AD0D0F8842042F00402C0F88420F4
:1053900001688A6942F040028A6113F4007F0AD0F2
:1053A000D0F8842042F00102C0F8842001688A69A4
:1053B00042F400728A6113F4807F0AD0D0F88430FE
:1053C00043F00803C0F884300268936943F48073A3
:1053D00093610023A0F86230A0F86A3010BC7047D7
:1053E00090FCFFFFC36B5B09C0680830C00803FB7B
:1053F000000070472DE9F04107460E4615461C4651
:10540000DDF8188000E0B4B13B685B6936EA03035D
:105410000CBF01230023AB420AD1FDF79FFCA0EB98
:105420000800A042EFD3B4F1FF3FECD0032000E02E
:105430000020BDE8F0810320FBE70000002800F019
:10544000B78070B504460023836205685C4B5D4EEF
:105450009D4218BFB54214BF0126002607D0A3F510
:1054600074439D4203D0C3680F2B00F2A3802046F3
:10547000FFF7B8FF2EB1544B9D4202D0082800F22E
:105480009B804F4A4F4B9D4218BF954203D003F576
:1054900080639D4202D1102800F2908094F8813000
:1054A000F3B1022384F881302268136823F00103EA
:1054B000136021688A6802F4F812A369B3F1806F5F
:1054C00014D0636813F4800F23D0E368062B20D92F
:1054D00021680B6823F48073206D03430B601DE08B
:1054E00084F880302046FDF79BF8DAE76368B3F56F
:1054F000800F06D0002BE4D1A36BB3F1805FE0D125
:1055000002E0A06B0028F5D10B6843F480530B60D8
:10551000D7E721680B6823F480730B60E369A16A05
:105520000B431343E26B1343E16822680B43936020
:10553000636B626A1343A26B1343A269134322692C
:10554000134362691343226A134362681343E26C94
:105550001343A2681343A26C1343A16D22680B434B
:10556000D36063686BB92268936823F4C05343F433
:10557000006393602268936823F4C06343F48063FC
:1055800093602268136D23F001031365636813F4BD
:10559000800F06D02268D36823F00043616D0B436F
:1055A000D3600020C4F88400012384F8813070BDEA
:1055B000012070470120FAE70120F8E70120F6E713
:1055C0000030014000380040003C00402DE9F04729
:1055D00082B004468A4691461D46D0F80080FDF709
:1055E000BDFB94F88160F6B2012E40F04881074679
:1055F000B9F1000F18BFBAF1000F00F0418194F823
:105600008030012B00F04081012384F88030032397
:1056100084F881300023C4F88430C4F85CA0A4F876
:105620006090A4F862906366A4F86830A4F86A30C9
:1056300063672367A368B3F5C02F1CD02268D368C3
:1056400023F4C02343F40033D360236859688F4A9E
:105650000A4049EA02025A602268136843F00103D3
:1056600013606368B3F5800F0BD0E3680F2B1BD872
:10567000072B4DD8ACE02268136843F40063136035
:10568000E3E72268136843F400731360EDE7E26D0B
:1056900012681A62E36D0433E365B4F8622092B2D3
:1056A000013A92B2A4F86220B4F862309BB2002BA7
:1056B00000F0C98023685A6912F0020FE7D1FDF7A4
:1056C0004DFBC01BA84202D3B5F1FF3F01D1002D15
:1056D000EAD12046FFF720FED4F8843043F48073EB
:1056E000C4F88430012384F88130002384F88030AA
:1056F0000326C5E0E36D1B88A8F82030E36D023374
:10570000E365B4F862309BB2013B9BB2A4F862300F
:10571000B4F862309BB2002B00F095802268536988
:1057200013F0020F15D0B4F862309BB2012BE1D90F
:10573000E36B002BDED0E36D1B681362E36D043373
:10574000E365B4F862309BB2023B9BB2A4F86230CE
:10575000DEE7FDF703FBC01BA84202D3B5F1FF3F14
:1057600001D1002DD4D12046FFF7D6FDD4F88430E6
:1057700043F48073C4F88430012384F8813000231B
:1057800084F8803003267BE0B4F862309BB2012BB2
:1057900010D9E36B73B1E36D1B88A8F82030E36D7B
:1057A0000233E365B4F862309BB2023B9BB2A4F8CB
:1057B00062300DE0E36D1B7882F82030E36D013339
:1057C000E365B4F862309BB2013B9BB2A4F862304F
:1057D000B4F862309BB2002B35D02268536913F0C5
:1057E000020F15D0B4F862309BB2032BCCD9E36B17
:1057F000402BC9D9E36D1B681362E36D0433E36585
:10580000B4F862309BB2043B9BB2A4F86230DFE78D
:10581000FDF7A4FAC01BA84202D3B5F1FF3F01D1A6
:10582000002DD5D12046FFF777FDD4F8843043F41E
:105830008073C4F88430012384F88130002384F815
:10584000803003261CE000972B46002208212046CA
:10585000FFF7D0FD28B1D4F8843043F02003C4F81A
:1058600084302046FFF758FD012384F8813000235F
:1058700084F88030D4F8843013B9002600E0022682
:10588000304602B0BDE8F0870226F9E70000FFFFCE
:105890002DE9F84F04468B4692461E46C56BC5F36C
:1058A0004F15D0F80090FDF759FA94F88170FFB2C7
:1058B000012F40F08F810135ADB28046BAF1000F63
:1058C00018BFBBF1000F00F0868194F88030012BE7
:1058D00000F08481012384F88030042384F881302F
:1058E0000023C4F88430C4F864B0A4F868A0A4F815
:1058F0006AA0E365A4F86030A4F8623023676367A8
:10590000A368B3F5C02F1DD02268D36823F4C02349
:1059100043F48023D36023685968A64A0A404AEAC0
:1059200002025A602268136843F00103136063683F
:10593000B3F5800F0CD0E3680F2B2FD8072B00F2A4
:1059400096800DE12268136823F400631360E2E798
:105950002268136843F400731360ECE7B4F86A201C
:1059600092B2AA4210D211F4004F0DD0626E1B6B9E
:105970001360636E04336366B4F86A309BB2013B14
:105980009BB2A4F86A3009E0FDF7E8F9A0EB080043
:10599000B04202D3B6F1FF3F1AD1CEB1B4F86A20BB
:1059A00092B2002A00F00881236859695A6912F0FE
:1059B000010FD3D0626E1B6B1360636E043363669A
:1059C000B4F86A2092B2013A92B2A4F86A20E5E7EC
:1059D0002046FFF7A1FCD4F8843043F48073C4F868
:1059E0008430012384F88130002384F88030032739
:1059F000F1E0B4F86A309BB2AB4217D212F4004F18
:105A000014D0636EB9F830201A80636E9A1C6266F7
:105A1000B9F830205A80636E02336366B4F86A3096
:105A20009BB2023B9BB2A4F86A3020E0B4F86A3023
:105A30009BB2012B11D112F4005F0ED0636EB9F846
:105A400030201A80636E02336366B4F86A309BB20A
:105A5000013B9BB2A4F86A3009E0FDF77FF9A0EBA7
:105A60000800B04202D3B6F1FF3F1BD1D6B1B4F863
:105A70006A309BB2002B00F09F8023685A695B69F3
:105A800013F0010FB5D0636EB9F830201A80636E41
:105A900002336366B4F86A309BB2013B9BB2A4F850
:105AA0006A30E4E72046FFF737FCD4F8843043F44B
:105AB0008073C4F88430012384F88130002384F893
:105AC0008030032787E0B4F86A2092B2AA4226D237
:105AD00011F4004F23D0626E93F830301370636E70
:105AE0005A1C6266226892F830205A70636E5A1C03
:105AF0006266226892F830205A70636E5A1C6266A1
